{
  "_format": "hh-sol-artifact-1",
  "contractName": "Messenger",
  "sourceName": "contracts/Messenger.sol",
  "abi": [
    {
      "inputs": [
        {
          "internalType": "uint256",
          "name": "_numOfPendingLimits",
          "type": "uint256"
        }
      ],
      "stateMutability": "payable",
      "type": "constructor"
    },
    {
      "anonymous": false,
      "inputs": [
        {
          "indexed": false,
          "internalType": "address",
          "name": "receiver",
          "type": "address"
        },
        {
          "indexed": false,
          "internalType": "uint256",
          "name": "index",
          "type": "uint256"
        }
      ],
      "name": "MessageConfirmed",
      "type": "event"
    },
    {
      "anonymous": false,
      "inputs": [
        {
          "indexed": false,
          "internalType": "uint256",
          "name": "depositInWei",
          "type": "uint256"
        },
        {
          "indexed": false,
          "internalType": "uint256",
          "name": "timestamp",
          "type": "uint256"
        },
        {
          "indexed": false,
          "internalType": "string",
          "name": "text",
          "type": "string"
        },
        {
          "indexed": false,
          "internalType": "bool",
          "name": "isPending",
          "type": "bool"
        },
        {
          "indexed": false,
          "internalType": "address",
          "name": "sender",
          "type": "address"
        },
        {
          "indexed": false,
          "internalType": "address",
          "name": "receiver",
          "type": "address"
        }
      ],
      "name": "NewMessage",
      "type": "event"
    },
    {
      "anonymous": false,
      "inputs": [
        {
          "indexed": false,
          "internalType": "uint256",
          "name": "limits",
          "type": "uint256"
        }
      ],
      "name": "NumOfPendingLimitsChanged",
      "type": "event"
    },
    {
      "inputs": [
        {
          "internalType": "uint256",
          "name": "_index",
          "type": "uint256"
        }
      ],
      "name": "accept",
      "outputs": [],
      "stateMutability": "nonpayable",
      "type": "function"
    },
    {
      "inputs": [
        {
          "internalType": "uint256",
          "name": "_limits",
          "type": "uint256"
        }
      ],
      "name": "changeNumOfPendingLimits",
      "outputs": [],
      "stateMutability": "nonpayable",
      "type": "function"
    },
    {
      "inputs": [
        {
          "internalType": "uint256",
          "name": "_index",
          "type": "uint256"
        }
      ],
      "name": "deny",
      "outputs": [],
      "stateMutability": "payable",
      "type": "function"
    },
    {
      "inputs": [],
      "name": "getOwnMessages",
      "outputs": [
        {
          "components": [
            {
              "internalType": "uint256",
              "name": "depositInWei",
              "type": "uint256"
            },
            {
              "internalType": "uint256",
              "name": "timestamp",
              "type": "uint256"
            },
            {
              "internalType": "string",
              "name": "text",
              "type": "string"
            },
            {
              "internalType": "bool",
              "name": "isPending",
              "type": "bool"
            },
            {
              "internalType": "address payable",
              "name": "sender",
              "type": "address"
            },
            {
              "internalType": "address payable",
              "name": "receiver",
              "type": "address"
            }
          ],
          "internalType": "struct Messenger.Message[]",
          "name": "",
          "type": "tuple[]"
        }
      ],
      "stateMutability": "view",
      "type": "function"
    },
    {
      "inputs": [],
      "name": "numOfPendingLimits",
      "outputs": [
        {
          "internalType": "uint256",
          "name": "",
          "type": "uint256"
        }
      ],
      "stateMutability": "view",
      "type": "function"
    },
    {
      "inputs": [],
      "name": "ownable",
      "outputs": [],
      "stateMutability": "nonpayable",
      "type": "function"
    },
    {
      "inputs": [],
      "name": "owner",
      "outputs": [
        {
          "internalType": "address",
          "name": "",
          "type": "address"
        }
      ],
      "stateMutability": "view",
      "type": "function"
    },
    {
      "inputs": [
        {
          "internalType": "string",
          "name": "_text",
          "type": "string"
        },
        {
          "internalType": "address payable",
          "name": "_receiver",
          "type": "address"
        }
      ],
      "name": "post",
      "outputs": [],
      "stateMutability": "payable",
      "type": "function"
    }
  ],
  "bytecode": "0x608060405260405162001f8338038062001f838339818101604052810190620000299190620001e0565b620000746040518060400160405280602081526020017f48657265206973206d7920666972737420736d61727420636f6e7472616374218152506200009260201b62000bb21760201c565b620000846200013560201b60201c565b8060018190555050620002da565b6200013281604051602401620000a99190620002b6565b6040516020818303038152906040527f41304fac000000000000000000000000000000000000000000000000000000007bffffffffffffffffffffffffffffffffffffffffffffffffffffffff19166020820180517bffffffffffffffffffffffffffffffffffffffffffffffffffffffff83818316178352505050506200017760201b60201c565b50565b336000806101000a81548173ffffffffffffffffffffffffffffffffffffffff021916908373ffffffffffffffffffffffffffffffffffffffff160217905550565b60008151905060006a636f6e736f6c652e6c6f679050602083016000808483855afa5050505050565b600080fd5b6000819050919050565b620001ba81620001a5565b8114620001c657600080fd5b50565b600081519050620001da81620001af565b92915050565b600060208284031215620001f957620001f8620001a0565b5b60006200020984828501620001c9565b91505092915050565b600081519050919050565b600082825260208201905092915050565b60005b838110156200024e57808201518184015260208101905062000231565b838111156200025e576000848401525b50505050565b6000601f19601f8301169050919050565b6000620002828262000212565b6200028e81856200021d565b9350620002a08185602086016200022e565b620002ab8162000264565b840191505092915050565b60006020820190508181036000830152620002d2818462000275565b905092915050565b611c9980620002ea6000396000f3fe60806040526004361061007b5760003560e01c8063837106bb1161004e578063837106bb1461010c5780638da5cb5b14610135578063acdb8efd14610160578063b38854be1461018b5761007b565b806313e262711461008057806319b05f491461009c57806339869bc3146100c557806356f66282146100f0575b600080fd5b61009a600480360381019061009591906112a3565b6101a2565b005b3480156100a857600080fd5b506100c360048036038101906100be9190611335565b6104a8565b005b3480156100d157600080fd5b506100da61068a565b6040516100e79190611371565b60405180910390f35b61010a60048036038101906101059190611335565b610690565b005b34801561011857600080fd5b50610133600480360381019061012e9190611335565b610872565b005b34801561014157600080fd5b5061014a610943565b60405161015791906113ad565b60405180910390f35b34801561016c57600080fd5b50610175610967565b60405161018291906115d4565b60405180910390f35b34801561019757600080fd5b506101a0610b70565b005b600154600360008373ffffffffffffffffffffffffffffffffffffffff1673ffffffffffffffffffffffffffffffffffffffff1681526020019081526020016000205410610225576040517f08c379a000000000000000000000000000000000000000000000000000000000815260040161021c90611679565b60405180910390fd5b6001600360008373ffffffffffffffffffffffffffffffffffffffff1673ffffffffffffffffffffffffffffffffffffffff168152602001908152602001600020600082825461027591906116c8565b925050819055506102bd6040518060400160405280601a81526020017f257320706f737473205b25735d20776974682025732041564158000000000000815250338434610c4b565b600260008273ffffffffffffffffffffffffffffffffffffffff1673ffffffffffffffffffffffffffffffffffffffff1681526020019081526020016000206040518060c001604052803481526020014281526020018481526020016001151581526020013373ffffffffffffffffffffffffffffffffffffffff1681526020018373ffffffffffffffffffffffffffffffffffffffff168152509080600181540180825580915050600190039060005260206000209060050201600090919091909150600082015181600001556020820151816001015560408201518160020190805190602001906103b1929190611048565b5060608201518160030160006101000a81548160ff02191690831515021790555060808201518160030160016101000a81548173ffffffffffffffffffffffffffffffffffffffff021916908373ffffffffffffffffffffffffffffffffffffffff16021790555060a08201518160040160006101000a81548173ffffffffffffffffffffffffffffffffffffffff021916908373ffffffffffffffffffffffffffffffffffffffff16021790555050507fc95c50f71f6ca3bbf696b0de568e9aad025623b286302b7bfa59d8a496d5cd5f3442846001338660405161049c969594939291906117c5565b60405180910390a15050565b6104b181610ced565b60006104bd3383610e81565b6040518060c001604052908160008201548152602001600182015481526020016002820180546104ec9061185c565b80601f01602080910402602001604051908101604052809291908181526020018280546105189061185c565b80156105655780601f1061053a57610100808354040283529160200191610565565b820191906000526020600020905b81548152906001019060200180831161054857829003601f168201915b505050505081526020016003820160009054906101000a900460ff161515151581526020016003820160019054906101000a900473ffffffffffffffffffffffffffffffffffffffff1673ffffffffffffffffffffffffffffffffffffffff1673ffffffffffffffffffffffffffffffffffffffff1681526020016004820160009054906101000a900473ffffffffffffffffffffffffffffffffffffffff1673ffffffffffffffffffffffffffffffffffffffff1673ffffffffffffffffffffffffffffffffffffffff168152505090506106498160a001518260000151610f6e565b7f2657c0f1a183b8a175f4cf6c3f6d7764c7265155fc9635682baad3cedd67d2878160a001518360405161067e92919061188e565b60405180910390a15050565b60015481565b61069981610ced565b60006106a53383610e81565b6040518060c001604052908160008201548152602001600182015481526020016002820180546106d49061185c565b80601f01602080910402602001604051908101604052809291908181526020018280546107009061185c565b801561074d5780601f106107225761010080835404028352916020019161074d565b820191906000526020600020905b81548152906001019060200180831161073057829003601f168201915b505050505081526020016003820160009054906101000a900460ff161515151581526020016003820160019054906101000a900473ffffffffffffffffffffffffffffffffffffffff1673ffffffffffffffffffffffffffffffffffffffff1673ffffffffffffffffffffffffffffffffffffffff1681526020016004820160009054906101000a900473ffffffffffffffffffffffffffffffffffffffff1673ffffffffffffffffffffffffffffffffffffffff1673ffffffffffffffffffffffffffffffffffffffff1681525050905061083181608001518260000151610f6e565b7f2657c0f1a183b8a175f4cf6c3f6d7764c7265155fc9635682baad3cedd67d2878160a001518360405161086692919061188e565b60405180910390a15050565b60008054906101000a900473ffffffffffffffffffffffffffffffffffffffff1673ffffffffffffffffffffffffffffffffffffffff163373ffffffffffffffffffffffffffffffffffffffff1614610900576040517f08c379a00000000000000000000000000000000000000000000000000000000081526004016108f790611903565b60405180910390fd5b806001819055507ff4add848113971c4866581c1df1951b8665a05140021ce0d344d1e823b8133c86001546040516109389190611371565b60405180910390a150565b60008054906101000a900473ffffffffffffffffffffffffffffffffffffffff1681565b6060600260003373ffffffffffffffffffffffffffffffffffffffff1673ffffffffffffffffffffffffffffffffffffffff168152602001908152602001600020805480602002602001604051908101604052809291908181526020016000905b82821015610b6757838290600052602060002090600502016040518060c00160405290816000820154815260200160018201548152602001600282018054610a0f9061185c565b80601f0160208091040260200160405190810160405280929190818152602001828054610a3b9061185c565b8015610a885780601f10610a5d57610100808354040283529160200191610a88565b820191906000526020600020905b815481529060010190602001808311610a6b57829003601f168201915b505050505081526020016003820160009054906101000a900460ff161515151581526020016003820160019054906101000a900473ffffffffffffffffffffffffffffffffffffffff1673ffffffffffffffffffffffffffffffffffffffff1673ffffffffffffffffffffffffffffffffffffffff1681526020016004820160009054906101000a900473ffffffffffffffffffffffffffffffffffffffff1673ffffffffffffffffffffffffffffffffffffffff1673ffffffffffffffffffffffffffffffffffffffff1681525050815260200190600101906109c8565b50505050905090565b336000806101000a81548173ffffffffffffffffffffffffffffffffffffffff021916908373ffffffffffffffffffffffffffffffffffffffff160217905550565b610c4881604051602401610bc69190611923565b6040516020818303038152906040527f41304fac000000000000000000000000000000000000000000000000000000007bffffffffffffffffffffffffffffffffffffffffffffffffffffffff19166020820180517bffffffffffffffffffffffffffffffffffffffffffffffffffffffff838183161783525050505061101f565b50565b610ce784848484604051602401610c659493929190611945565b6040516020818303038152906040527f91d1112e000000000000000000000000000000000000000000000000000000007bffffffffffffffffffffffffffffffffffffffffffffffffffffffff19166020820180517bffffffffffffffffffffffffffffffffffffffffffffffffffffffff838183161783525050505061101f565b50505050565b6000610cf93383610e81565b90508060040160009054906101000a900473ffffffffffffffffffffffffffffffffffffffff1673ffffffffffffffffffffffffffffffffffffffff163373ffffffffffffffffffffffffffffffffffffffff1614610d8d576040517f08c379a0000000000000000000000000000000000000000000000000000000008152600401610d8490611a0a565b60405180910390fd5b600115158160030160009054906101000a900460ff16151514610de5576040517f08c379a0000000000000000000000000000000000000000000000000000000008152600401610ddc90611a9c565b60405180910390fd5b60008160030160006101000a81548160ff0219169083151502179055506001600360008360040160009054906101000a900473ffffffffffffffffffffffffffffffffffffffff1673ffffffffffffffffffffffffffffffffffffffff1673ffffffffffffffffffffffffffffffffffffffff1681526020019081526020016000206000828254610e769190611abc565b925050819055505050565b6000600260008473ffffffffffffffffffffffffffffffffffffffff1673ffffffffffffffffffffffffffffffffffffffff168152602001908152602001600020805490508210610f07576040517f08c379a0000000000000000000000000000000000000000000000000000000008152600401610efe90611b3c565b60405180910390fd5b600260008473ffffffffffffffffffffffffffffffffffffffff1673ffffffffffffffffffffffffffffffffffffffff1681526020019081526020016000208281548110610f5857610f57611b5c565b5b9060005260206000209060050201905092915050565b60008273ffffffffffffffffffffffffffffffffffffffff1682604051610f9490611bbc565b60006040518083038185875af1925050503d8060008114610fd1576040519150601f19603f3d011682016040523d82523d6000602084013e610fd6565b606091505b505090508061101a576040517f08c379a000000000000000000000000000000000000000000000000000000000815260040161101190611c43565b60405180910390fd5b505050565b60008151905060006a636f6e736f6c652e6c6f679050602083016000808483855afa5050505050565b8280546110549061185c565b90600052602060002090601f01602090048101928261107657600085556110bd565b82601f1061108f57805160ff19168380011785556110bd565b828001600101855582156110bd579182015b828111156110bc5782518255916020019190600101906110a1565b5b5090506110ca91906110ce565b5090565b5b808211156110e75760008160009055506001016110cf565b5090565b6000604051905090565b600080fd5b600080fd5b600080fd5b600080fd5b6000601f19601f8301169050919050565b7f4e487b7100000000000000000000000000000000000000000000000000000000600052604160045260246000fd5b61115282611109565b810181811067ffffffffffffffff821117156111715761117061111a565b5b80604052505050565b60006111846110eb565b90506111908282611149565b919050565b600067ffffffffffffffff8211156111b0576111af61111a565b5b6111b982611109565b9050602081019050919050565b82818337600083830152505050565b60006111e86111e384611195565b61117a565b90508281526020810184848401111561120457611203611104565b5b61120f8482856111c6565b509392505050565b600082601f83011261122c5761122b6110ff565b5b813561123c8482602086016111d5565b91505092915050565b600073ffffffffffffffffffffffffffffffffffffffff82169050919050565b600061127082611245565b9050919050565b61128081611265565b811461128b57600080fd5b50565b60008135905061129d81611277565b92915050565b600080604083850312156112ba576112b96110f5565b5b600083013567ffffffffffffffff8111156112d8576112d76110fa565b5b6112e485828601611217565b92505060206112f58582860161128e565b9150509250929050565b6000819050919050565b611312816112ff565b811461131d57600080fd5b50565b60008135905061132f81611309565b92915050565b60006020828403121561134b5761134a6110f5565b5b600061135984828501611320565b91505092915050565b61136b816112ff565b82525050565b60006020820190506113866000830184611362565b92915050565b600061139782611245565b9050919050565b6113a78161138c565b82525050565b60006020820190506113c2600083018461139e565b92915050565b600081519050919050565b600082825260208201905092915050565b6000819050602082019050919050565b6113fd816112ff565b82525050565b600081519050919050565b600082825260208201905092915050565b60005b8381101561143d578082015181840152602081019050611422565b8381111561144c576000848401525b50505050565b600061145d82611403565b611467818561140e565b935061147781856020860161141f565b61148081611109565b840191505092915050565b60008115159050919050565b6114a08161148b565b82525050565b6114af81611265565b82525050565b600060c0830160008301516114cd60008601826113f4565b5060208301516114e060208601826113f4565b50604083015184820360408601526114f88282611452565b915050606083015161150d6060860182611497565b50608083015161152060808601826114a6565b5060a083015161153360a08601826114a6565b508091505092915050565b600061154a83836114b5565b905092915050565b6000602082019050919050565b600061156a826113c8565b61157481856113d3565b935083602082028501611586856113e4565b8060005b858110156115c257848403895281516115a3858261153e565b94506115ae83611552565b925060208a0199505060018101905061158a565b50829750879550505050505092915050565b600060208201905081810360008301526115ee818461155f565b905092915050565b600082825260208201905092915050565b7f54686520726563656976657220686173207265616368656420746865206e756d60008201527f626572206f662070656e64696e67206c696d6974730000000000000000000000602082015250565b60006116636035836115f6565b915061166e82611607565b604082019050919050565b6000602082019050818103600083015261169281611656565b9050919050565b7f4e487b7100000000000000000000000000000000000000000000000000000000600052601160045260246000fd5b60006116d3826112ff565b91506116de836112ff565b9250827fffffffffffffffffffffffffffffffffffffffffffffffffffffffffffffffff0382111561171357611712611699565b5b828201905092915050565b600061172982611403565b61173381856115f6565b935061174381856020860161141f565b61174c81611109565b840191505092915050565b6117608161148b565b82525050565b6000819050919050565b600061178b61178661178184611245565b611766565b611245565b9050919050565b600061179d82611770565b9050919050565b60006117af82611792565b9050919050565b6117bf816117a4565b82525050565b600060c0820190506117da6000830189611362565b6117e76020830188611362565b81810360408301526117f9818761171e565b90506118086060830186611757565b611815608083018561139e565b61182260a08301846117b6565b979650505050505050565b7f4e487b7100000000000000000000000000000000000000000000000000000000600052602260045260246000fd5b6000600282049050600182168061187457607f821691505b602082108114156118885761188761182d565b5b50919050565b60006040820190506118a360008301856117b6565b6118b06020830184611362565b9392505050565b7f596f75206172656e277420746865206f776e6572000000000000000000000000600082015250565b60006118ed6014836115f6565b91506118f8826118b7565b602082019050919050565b6000602082019050818103600083015261191c816118e0565b9050919050565b6000602082019050818103600083015261193d818461171e565b905092915050565b6000608082019050818103600083015261195f818761171e565b905061196e602083018661139e565b8181036040830152611980818561171e565b905061198f6060830184611362565b95945050505050565b7f4f6e6c79207468652072656365697665722063616e20636f6e6669726d4d657360008201527f7361676520746865206d65737361676500000000000000000000000000000000602082015250565b60006119f46030836115f6565b91506119ff82611998565b604082019050919050565b60006020820190508181036000830152611a23816119e7565b9050919050565b7f54686973206d6573736167652068617320616c7265616479206265656e20636f60008201527f6e6669726d656400000000000000000000000000000000000000000000000000602082015250565b6000611a866027836115f6565b9150611a9182611a2a565b604082019050919050565b60006020820190508181036000830152611ab581611a79565b9050919050565b6000611ac7826112ff565b9150611ad2836112ff565b925082821015611ae557611ae4611699565b5b828203905092915050565b7f496e646578206973206f7574206f662072616e67650000000000000000000000600082015250565b6000611b266015836115f6565b9150611b3182611af0565b602082019050919050565b60006020820190508181036000830152611b5581611b19565b9050919050565b7f4e487b7100000000000000000000000000000000000000000000000000000000600052603260045260246000fd5b600081905092915050565b50565b6000611ba6600083611b8b565b9150611bb182611b96565b600082019050919050565b6000611bc782611b99565b9150819050919050565b7f4661696c656420746f20776974686472617720415641582066726f6d20636f6e60008201527f7472616374000000000000000000000000000000000000000000000000000000602082015250565b6000611c2d6025836115f6565b9150611c3882611bd1565b604082019050919050565b60006020820190508181036000830152611c5c81611c20565b905091905056fea26469706673582212200efda81f1ba2e8c22a28e2c428313f36149de56315f82c15ba75287b2a2c982364736f6c63430008090033",
  "linkReferences": {},
  "deployedLinkReferences": {}
}