{
  "_format": "hh-sol-artifact-1",
  "contractName": "Messenger",
  "sourceName": "contracts/Messenger.sol",
  "abi": [
    {
      "inputs": [
        {
          "internalType": "uint256",
          "name": "_numOfPendingLimits",
          "type": "uint256"
        }
      ],
      "stateMutability": "payable",
      "type": "constructor"
    },
    {
      "anonymous": false,
      "inputs": [
        {
          "indexed": false,
          "internalType": "address",
          "name": "receiver",
          "type": "address"
        },
        {
          "indexed": false,
          "internalType": "uint256",
          "name": "index",
          "type": "uint256"
        }
      ],
      "name": "MessageConfirmed",
      "type": "event"
    },
    {
      "anonymous": false,
      "inputs": [
        {
          "indexed": false,
          "internalType": "uint256",
          "name": "deposit",
          "type": "uint256"
        },
        {
          "indexed": false,
          "internalType": "uint256",
          "name": "timestamp",
          "type": "uint256"
        },
        {
          "indexed": false,
          "internalType": "string",
          "name": "text",
          "type": "string"
        },
        {
          "indexed": false,
          "internalType": "bool",
          "name": "isPending",
          "type": "bool"
        },
        {
          "indexed": false,
          "internalType": "address",
          "name": "sender",
          "type": "address"
        },
        {
          "indexed": false,
          "internalType": "address",
          "name": "receiver",
          "type": "address"
        }
      ],
      "name": "NewMessage",
      "type": "event"
    },
    {
      "inputs": [
        {
          "internalType": "uint256",
          "name": "_index",
          "type": "uint256"
        }
      ],
      "name": "accept",
      "outputs": [],
      "stateMutability": "nonpayable",
      "type": "function"
    },
    {
      "inputs": [
        {
          "internalType": "uint256",
          "name": "_limit",
          "type": "uint256"
        }
      ],
      "name": "changeNumOfPendingLimits",
      "outputs": [],
      "stateMutability": "nonpayable",
      "type": "function"
    },
    {
      "inputs": [
        {
          "internalType": "uint256",
          "name": "_index",
          "type": "uint256"
        }
      ],
      "name": "deny",
      "outputs": [],
      "stateMutability": "payable",
      "type": "function"
    },
    {
      "inputs": [],
      "name": "getOwnMessages",
      "outputs": [
        {
          "components": [
            {
              "internalType": "uint256",
              "name": "deposit",
              "type": "uint256"
            },
            {
              "internalType": "uint256",
              "name": "timestamp",
              "type": "uint256"
            },
            {
              "internalType": "string",
              "name": "text",
              "type": "string"
            },
            {
              "internalType": "bool",
              "name": "isPending",
              "type": "bool"
            },
            {
              "internalType": "address payable",
              "name": "sender",
              "type": "address"
            },
            {
              "internalType": "address payable",
              "name": "receiver",
              "type": "address"
            }
          ],
          "internalType": "struct Messenger.Message[]",
          "name": "",
          "type": "tuple[]"
        }
      ],
      "stateMutability": "view",
      "type": "function"
    },
    {
      "inputs": [],
      "name": "numOfPendingLimits",
      "outputs": [
        {
          "internalType": "uint256",
          "name": "",
          "type": "uint256"
        }
      ],
      "stateMutability": "view",
      "type": "function"
    },
    {
      "inputs": [],
      "name": "ownable",
      "outputs": [],
      "stateMutability": "nonpayable",
      "type": "function"
    },
    {
      "inputs": [],
      "name": "owner",
      "outputs": [
        {
          "internalType": "address",
          "name": "",
          "type": "address"
        }
      ],
      "stateMutability": "view",
      "type": "function"
    },
    {
      "inputs": [
        {
          "internalType": "string",
          "name": "_text",
          "type": "string"
        },
        {
          "internalType": "address payable",
          "name": "_receiver",
          "type": "address"
        }
      ],
      "name": "post",
      "outputs": [],
      "stateMutability": "payable",
      "type": "function"
    }
  ],
  "bytecode": "0x608060405260405162001c4938038062001c498339818101604052810190620000299190620001ce565b620000746040518060400160405280602081526020017f48657265206973206d7920666972737420736d61727420636f6e747261637421815250620000c260201b62000ab11760201c565b336000806101000a81548173ffffffffffffffffffffffffffffffffffffffff021916908373ffffffffffffffffffffffffffffffffffffffff1602179055508060018190555050620002c8565b6200016281604051602401620000d99190620002a4565b6040516020818303038152906040527f41304fac000000000000000000000000000000000000000000000000000000007bffffffffffffffffffffffffffffffffffffffffffffffffffffffff19166020820180517bffffffffffffffffffffffffffffffffffffffffffffffffffffffff83818316178352505050506200016560201b60201c565b50565b60008151905060006a636f6e736f6c652e6c6f679050602083016000808483855afa5050505050565b600080fd5b6000819050919050565b620001a88162000193565b8114620001b457600080fd5b50565b600081519050620001c8816200019d565b92915050565b600060208284031215620001e757620001e66200018e565b5b6000620001f784828501620001b7565b91505092915050565b600081519050919050565b600082825260208201905092915050565b60005b838110156200023c5780820151818401526020810190506200021f565b838111156200024c576000848401525b50505050565b6000601f19601f8301169050919050565b6000620002708262000200565b6200027c81856200020b565b93506200028e8185602086016200021c565b620002998162000252565b840191505092915050565b60006020820190508181036000830152620002c0818462000263565b905092915050565b61197180620002d86000396000f3fe60806040526004361061007b5760003560e01c8063837106bb1161004e578063837106bb1461010c5780638da5cb5b14610135578063acdb8efd14610160578063b38854be1461018b5761007b565b806313e262711461008057806319b05f491461009c57806339869bc3146100c557806356f66282146100f0575b600080fd5b61009a6004803603810190610095919061100e565b6101a2565b005b3480156100a857600080fd5b506100c360048036038101906100be91906110a0565b610454565b005b3480156100d157600080fd5b506100da6105fc565b6040516100e791906110dc565b60405180910390f35b61010a600480360381019061010591906110a0565b610602565b005b34801561011857600080fd5b50610133600480360381019061012e91906110a0565b6107aa565b005b34801561014157600080fd5b5061014a610842565b6040516101579190611118565b60405180910390f35b34801561016c57600080fd5b50610175610866565b604051610182919061133f565b60405180910390f35b34801561019757600080fd5b506101a0610a6f565b005b600154600260008373ffffffffffffffffffffffffffffffffffffffff1673ffffffffffffffffffffffffffffffffffffffff1681526020019081526020016000208054905010610228576040517f08c379a000000000000000000000000000000000000000000000000000000000815260040161021f906113e4565b60405180910390fd5b6102696040518060400160405280601a81526020017f257320706f737473205b25735d20776974682025732061766178000000000000815250338434610b4a565b600260008273ffffffffffffffffffffffffffffffffffffffff1673ffffffffffffffffffffffffffffffffffffffff1681526020019081526020016000206040518060c001604052803481526020014281526020018481526020016001151581526020013373ffffffffffffffffffffffffffffffffffffffff1681526020018373ffffffffffffffffffffffffffffffffffffffff1681525090806001815401808255809150506001900390600052602060002090600502016000909190919091506000820151816000015560208201518160010155604082015181600201908051906020019061035d929190610db3565b5060608201518160030160006101000a81548160ff02191690831515021790555060808201518160030160016101000a81548173ffffffffffffffffffffffffffffffffffffffff021916908373ffffffffffffffffffffffffffffffffffffffff16021790555060a08201518160040160006101000a81548173ffffffffffffffffffffffffffffffffffffffff021916908373ffffffffffffffffffffffffffffffffffffffff16021790555050507fc95c50f71f6ca3bbf696b0de568e9aad025623b286302b7bfa59d8a496d5cd5f34428460013386604051610448969594939291906114ab565b60405180910390a15050565b60006104603383610bec565b90508060040160009054906101000a900473ffffffffffffffffffffffffffffffffffffffff1673ffffffffffffffffffffffffffffffffffffffff163373ffffffffffffffffffffffffffffffffffffffff16146104f4576040517f08c379a00000000000000000000000000000000000000000000000000000000081526004016104eb906115ab565b60405180910390fd5b600115158160030160009054906101000a900460ff1615151461054c576040517f08c379a00000000000000000000000000000000000000000000000000000000081526004016105439061163d565b60405180910390fd5b61057e8160040160009054906101000a900473ffffffffffffffffffffffffffffffffffffffff168260000154610cd9565b60008160030160006101000a81548160ff0219169083151502179055507f2657c0f1a183b8a175f4cf6c3f6d7764c7265155fc9635682baad3cedd67d2878160040160009054906101000a900473ffffffffffffffffffffffffffffffffffffffff16836040516105f092919061165d565b60405180910390a15050565b60015481565b600061060e3383610bec565b90508060040160009054906101000a900473ffffffffffffffffffffffffffffffffffffffff1673ffffffffffffffffffffffffffffffffffffffff163373ffffffffffffffffffffffffffffffffffffffff16146106a2576040517f08c379a0000000000000000000000000000000000000000000000000000000008152600401610699906115ab565b60405180910390fd5b600115158160030160009054906101000a900460ff161515146106fa576040517f08c379a00000000000000000000000000000000000000000000000000000000081526004016106f19061163d565b60405180910390fd5b61072c8160030160019054906101000a900473ffffffffffffffffffffffffffffffffffffffff168260000154610cd9565b60008160030160006101000a81548160ff0219169083151502179055507f2657c0f1a183b8a175f4cf6c3f6d7764c7265155fc9635682baad3cedd67d2878160040160009054906101000a900473ffffffffffffffffffffffffffffffffffffffff168360405161079e92919061165d565b60405180910390a15050565b60008054906101000a900473ffffffffffffffffffffffffffffffffffffffff1673ffffffffffffffffffffffffffffffffffffffff163373ffffffffffffffffffffffffffffffffffffffff1614610838576040517f08c379a000000000000000000000000000000000000000000000000000000000815260040161082f906116d2565b60405180910390fd5b8060018190555050565b60008054906101000a900473ffffffffffffffffffffffffffffffffffffffff1681565b6060600260003373ffffffffffffffffffffffffffffffffffffffff1673ffffffffffffffffffffffffffffffffffffffff168152602001908152602001600020805480602002602001604051908101604052809291908181526020016000905b82821015610a6657838290600052602060002090600502016040518060c0016040529081600082015481526020016001820154815260200160028201805461090e90611721565b80601f016020809104026020016040519081016040528092919081815260200182805461093a90611721565b80156109875780601f1061095c57610100808354040283529160200191610987565b820191906000526020600020905b81548152906001019060200180831161096a57829003601f168201915b505050505081526020016003820160009054906101000a900460ff161515151581526020016003820160019054906101000a900473ffffffffffffffffffffffffffffffffffffffff1673ffffffffffffffffffffffffffffffffffffffff1673ffffffffffffffffffffffffffffffffffffffff1681526020016004820160009054906101000a900473ffffffffffffffffffffffffffffffffffffffff1673ffffffffffffffffffffffffffffffffffffffff1673ffffffffffffffffffffffffffffffffffffffff1681525050815260200190600101906108c7565b50505050905090565b336000806101000a81548173ffffffffffffffffffffffffffffffffffffffff021916908373ffffffffffffffffffffffffffffffffffffffff160217905550565b610b4781604051602401610ac59190611753565b6040516020818303038152906040527f41304fac000000000000000000000000000000000000000000000000000000007bffffffffffffffffffffffffffffffffffffffffffffffffffffffff19166020820180517bffffffffffffffffffffffffffffffffffffffffffffffffffffffff8381831617835250505050610d8a565b50565b610be684848484604051602401610b649493929190611775565b6040516020818303038152906040527f91d1112e000000000000000000000000000000000000000000000000000000007bffffffffffffffffffffffffffffffffffffffffffffffffffffffff19166020820180517bffffffffffffffffffffffffffffffffffffffffffffffffffffffff8381831617835250505050610d8a565b50505050565b6000600260008473ffffffffffffffffffffffffffffffffffffffff1673ffffffffffffffffffffffffffffffffffffffff168152602001908152602001600020805490508210610c72576040517f08c379a0000000000000000000000000000000000000000000000000000000008152600401610c6990611814565b60405180910390fd5b600260008473ffffffffffffffffffffffffffffffffffffffff1673ffffffffffffffffffffffffffffffffffffffff1681526020019081526020016000208281548110610cc357610cc2611834565b5b9060005260206000209060050201905092915050565b60008273ffffffffffffffffffffffffffffffffffffffff1682604051610cff90611894565b60006040518083038185875af1925050503d8060008114610d3c576040519150601f19603f3d011682016040523d82523d6000602084013e610d41565b606091505b5050905080610d85576040517f08c379a0000000000000000000000000000000000000000000000000000000008152600401610d7c9061191b565b60405180910390fd5b505050565b60008151905060006a636f6e736f6c652e6c6f679050602083016000808483855afa5050505050565b828054610dbf90611721565b90600052602060002090601f016020900481019282610de15760008555610e28565b82601f10610dfa57805160ff1916838001178555610e28565b82800160010185558215610e28579182015b82811115610e27578251825591602001919060010190610e0c565b5b509050610e359190610e39565b5090565b5b80821115610e52576000816000905550600101610e3a565b5090565b6000604051905090565b600080fd5b600080fd5b600080fd5b600080fd5b6000601f19601f8301169050919050565b7f4e487b7100000000000000000000000000000000000000000000000000000000600052604160045260246000fd5b610ebd82610e74565b810181811067ffffffffffffffff82111715610edc57610edb610e85565b5b80604052505050565b6000610eef610e56565b9050610efb8282610eb4565b919050565b600067ffffffffffffffff821115610f1b57610f1a610e85565b5b610f2482610e74565b9050602081019050919050565b82818337600083830152505050565b6000610f53610f4e84610f00565b610ee5565b905082815260208101848484011115610f6f57610f6e610e6f565b5b610f7a848285610f31565b509392505050565b600082601f830112610f9757610f96610e6a565b5b8135610fa7848260208601610f40565b91505092915050565b600073ffffffffffffffffffffffffffffffffffffffff82169050919050565b6000610fdb82610fb0565b9050919050565b610feb81610fd0565b8114610ff657600080fd5b50565b60008135905061100881610fe2565b92915050565b6000806040838503121561102557611024610e60565b5b600083013567ffffffffffffffff81111561104357611042610e65565b5b61104f85828601610f82565b925050602061106085828601610ff9565b9150509250929050565b6000819050919050565b61107d8161106a565b811461108857600080fd5b50565b60008135905061109a81611074565b92915050565b6000602082840312156110b6576110b5610e60565b5b60006110c48482850161108b565b91505092915050565b6110d68161106a565b82525050565b60006020820190506110f160008301846110cd565b92915050565b600061110282610fb0565b9050919050565b611112816110f7565b82525050565b600060208201905061112d6000830184611109565b92915050565b600081519050919050565b600082825260208201905092915050565b6000819050602082019050919050565b6111688161106a565b82525050565b600081519050919050565b600082825260208201905092915050565b60005b838110156111a857808201518184015260208101905061118d565b838111156111b7576000848401525b50505050565b60006111c88261116e565b6111d28185611179565b93506111e281856020860161118a565b6111eb81610e74565b840191505092915050565b60008115159050919050565b61120b816111f6565b82525050565b61121a81610fd0565b82525050565b600060c083016000830151611238600086018261115f565b50602083015161124b602086018261115f565b506040830151848203604086015261126382826111bd565b91505060608301516112786060860182611202565b50608083015161128b6080860182611211565b5060a083015161129e60a0860182611211565b508091505092915050565b60006112b58383611220565b905092915050565b6000602082019050919050565b60006112d582611133565b6112df818561113e565b9350836020820285016112f18561114f565b8060005b8581101561132d578484038952815161130e85826112a9565b9450611319836112bd565b925060208a019950506001810190506112f5565b50829750879550505050505092915050565b6000602082019050818103600083015261135981846112ca565b905092915050565b600082825260208201905092915050565b7f54686520726563656976657220686173207265616368656420746865206e756d60008201527f626572206f662070656e64696e67206c696d6974730000000000000000000000602082015250565b60006113ce603583611361565b91506113d982611372565b604082019050919050565b600060208201905081810360008301526113fd816113c1565b9050919050565b600061140f8261116e565b6114198185611361565b935061142981856020860161118a565b61143281610e74565b840191505092915050565b611446816111f6565b82525050565b6000819050919050565b600061147161146c61146784610fb0565b61144c565b610fb0565b9050919050565b600061148382611456565b9050919050565b600061149582611478565b9050919050565b6114a58161148a565b82525050565b600060c0820190506114c060008301896110cd565b6114cd60208301886110cd565b81810360408301526114df8187611404565b90506114ee606083018661143d565b6114fb6080830185611109565b61150860a083018461149c565b979650505050505050565b7f5468652063616c6c6572206f662074686520636f6e7472616374206d7573742060008201527f626520657175616c20746f20746865207265636569766572206f66207468652060208201527f6d65737361676500000000000000000000000000000000000000000000000000604082015250565b6000611595604783611361565b91506115a082611513565b606082019050919050565b600060208201905081810360008301526115c481611588565b9050919050565b7f54686973206d6573736167652068617320616c7265616479206265656e20636f60008201527f6e6669726d656400000000000000000000000000000000000000000000000000602082015250565b6000611627602783611361565b9150611632826115cb565b604082019050919050565b600060208201905081810360008301526116568161161a565b9050919050565b6000604082019050611672600083018561149c565b61167f60208301846110cd565b9392505050565b7f596f75206172656e277420746865206f776e6572000000000000000000000000600082015250565b60006116bc601483611361565b91506116c782611686565b602082019050919050565b600060208201905081810360008301526116eb816116af565b9050919050565b7f4e487b7100000000000000000000000000000000000000000000000000000000600052602260045260246000fd5b6000600282049050600182168061173957607f821691505b6020821081141561174d5761174c6116f2565b5b50919050565b6000602082019050818103600083015261176d8184611404565b905092915050565b6000608082019050818103600083015261178f8187611404565b905061179e6020830186611109565b81810360408301526117b08185611404565b90506117bf60608301846110cd565b95945050505050565b7f496e646578206973206f7574206f662072616e67650000000000000000000000600082015250565b60006117fe601583611361565b9150611809826117c8565b602082019050919050565b6000602082019050818103600083015261182d816117f1565b9050919050565b7f4e487b7100000000000000000000000000000000000000000000000000000000600052603260045260246000fd5b600081905092915050565b50565b600061187e600083611863565b91506118898261186e565b600082019050919050565b600061189f82611871565b9150819050919050565b7f4661696c656420746f20776974686472617720415641582066726f6d20636f6e60008201527f7472616374000000000000000000000000000000000000000000000000000000602082015250565b6000611905602583611361565b9150611910826118a9565b604082019050919050565b60006020820190508181036000830152611934816118f8565b905091905056fea264697066735822122008a44354066f2acf601aa77a047ffb3b929143765873c9849f08f6d3b3ffa7bf64736f6c63430008090033",
  "linkReferences": {},
  "deployedLinkReferences": {}
}